{"abi":[{"type":"function","name":"test2Func1","inputs":[],"outputs":[],"stateMutability":"nonpayable"},{"type":"function","name":"test2Func10","inputs":[],"outputs":[],"stateMutability":"nonpayable"},{"type":"function","name":"test2Func11","inputs":[],"outputs":[],"stateMutability":"nonpayable"},{"type":"function","name":"test2Func12","inputs":[],"outputs":[],"stateMutability":"nonpayable"},{"type":"function","name":"test2Func13","inputs":[],"outputs":[],"stateMutability":"nonpayable"},{"type":"function","name":"test2Func14","inputs":[],"outputs":[],"stateMutability":"nonpayable"},{"type":"function","name":"test2Func15","inputs":[],"outputs":[],"stateMutability":"nonpayable"},{"type":"function","name":"test2Func16","inputs":[],"outputs":[],"stateMutability":"nonpayable"},{"type":"function","name":"test2Func17","inputs":[],"outputs":[],"stateMutability":"nonpayable"},{"type":"function","name":"test2Func18","inputs":[],"outputs":[],"stateMutability":"nonpayable"},{"type":"function","name":"test2Func19","inputs":[],"outputs":[],"stateMutability":"nonpayable"},{"type":"function","name":"test2Func2","inputs":[],"outputs":[],"stateMutability":"nonpayable"},{"type":"function","name":"test2Func20","inputs":[],"outputs":[],"stateMutability":"nonpayable"},{"type":"function","name":"test2Func3","inputs":[],"outputs":[],"stateMutability":"nonpayable"},{"type":"function","name":"test2Func4","inputs":[],"outputs":[],"stateMutability":"nonpayable"},{"type":"function","name":"test2Func5","inputs":[],"outputs":[],"stateMutability":"nonpayable"},{"type":"function","name":"test2Func6","inputs":[],"outputs":[],"stateMutability":"nonpayable"},{"type":"function","name":"test2Func7","inputs":[],"outputs":[],"stateMutability":"nonpayable"},{"type":"function","name":"test2Func8","inputs":[],"outputs":[],"stateMutability":"nonpayable"},{"type":"function","name":"test2Func9","inputs":[],"outputs":[],"stateMutability":"nonpayable"}],"bytecode":{"object":"0x6080604052348015600e575f5ffd5b506102548061001c5f395ff3fe608060405234801561000f575f5ffd5b506004361061012a575f3560e01c80638ee8be30116100ab578063d2f0c73e1161006f578063d2f0c73e146101c4578063e5f687b2146101ce578063e7de23a4146101d8578063ea36b558146101e2578063ef3f4d78146101ec5761012a565b80638ee8be301461019257806391d0396b1461019c578063c670641d146101a6578063ca5fa5c0146101b0578063caae8f23146101ba5761012a565b80632e463958116100f25780632e463958146101605780635fd6312b1461016a5780636dc16b0114610174578063792a8e2e1461017e578063884280a6146101885761012a565b806303feeeae1461012e5780630c103a93146101385780630e4cd7fc14610142578063148843091461014c57806317fd06e714610156575b5f5ffd5b6101366101f6565b005b6101406101f8565b005b61014a6101fa565b005b6101546101fc565b005b61015e6101fe565b005b610168610200565b005b610172610202565b005b61017c610204565b005b610186610206565b005b610190610208565b005b61019a61020a565b005b6101a461020c565b005b6101ae61020e565b005b6101b8610210565b005b6101c2610212565b005b6101cc610214565b005b6101d6610216565b005b6101e0610218565b005b6101ea61021a565b005b6101f461021c565b005b565b565b565b565b565b565b565b565b565b565b565b565b565b565b565b565b565b565b565b56fea264697066735822122099f28369bcf6fa25b4dc363949c8269376c91dd671b595e551a9c4ea78e9400864736f6c634300081d0033","linkReferences":{}},"methodIdentifiers":{"test2Func1()":"ea36b558","test2Func10()":"8ee8be30","test2Func11()":"884280a6","test2Func12()":"ca5fa5c0","test2Func13()":"6dc16b01","test2Func14()":"91d0396b","test2Func15()":"03feeeae","test2Func16()":"2e463958","test2Func17()":"14884309","test2Func18()":"0c103a93","test2Func19()":"5fd6312b","test2Func2()":"e7de23a4","test2Func20()":"792a8e2e","test2Func3()":"0e4cd7fc","test2Func4()":"c670641d","test2Func5()":"d2f0c73e","test2Func6()":"17fd06e7","test2Func7()":"ef3f4d78","test2Func8()":"e5f687b2","test2Func9()":"caae8f23"},"id":5}