{"abi":[{"type":"function","name":"supportsInterface","inputs":[{"name":"_interfaceID","type":"bytes4","internalType":"bytes4"}],"outputs":[{"name":"","type":"bool","internalType":"bool"}],"stateMutability":"view"},{"type":"function","name":"test1Func1","inputs":[],"outputs":[],"stateMutability":"nonpayable"},{"type":"function","name":"test1Func10","inputs":[],"outputs":[],"stateMutability":"nonpayable"},{"type":"function","name":"test1Func11","inputs":[],"outputs":[],"stateMutability":"nonpayable"},{"type":"function","name":"test1Func12","inputs":[],"outputs":[],"stateMutability":"nonpayable"},{"type":"function","name":"test1Func13","inputs":[],"outputs":[],"stateMutability":"nonpayable"},{"type":"function","name":"test1Func14","inputs":[],"outputs":[],"stateMutability":"nonpayable"},{"type":"function","name":"test1Func15","inputs":[],"outputs":[],"stateMutability":"nonpayable"},{"type":"function","name":"test1Func16","inputs":[],"outputs":[],"stateMutability":"nonpayable"},{"type":"function","name":"test1Func17","inputs":[],"outputs":[],"stateMutability":"nonpayable"},{"type":"function","name":"test1Func18","inputs":[],"outputs":[],"stateMutability":"nonpayable"},{"type":"function","name":"test1Func19","inputs":[],"outputs":[],"stateMutability":"nonpayable"},{"type":"function","name":"test1Func2","inputs":[],"outputs":[],"stateMutability":"nonpayable"},{"type":"function","name":"test1Func20","inputs":[],"outputs":[],"stateMutability":"nonpayable"},{"type":"function","name":"test1Func3","inputs":[],"outputs":[],"stateMutability":"nonpayable"},{"type":"function","name":"test1Func4","inputs":[],"outputs":[],"stateMutability":"nonpayable"},{"type":"function","name":"test1Func5","inputs":[],"outputs":[],"stateMutability":"nonpayable"},{"type":"function","name":"test1Func6","inputs":[],"outputs":[],"stateMutability":"nonpayable"},{"type":"function","name":"test1Func7","inputs":[],"outputs":[],"stateMutability":"nonpayable"},{"type":"function","name":"test1Func8","inputs":[],"outputs":[],"stateMutability":"nonpayable"},{"type":"function","name":"test1Func9","inputs":[],"outputs":[],"stateMutability":"nonpayable"},{"type":"event","name":"TestEvent","inputs":[{"name":"something","type":"address","indexed":false,"internalType":"address"}],"anonymous":false}],"bytecode":{"object":"0x6080604052348015600e575f5ffd5b5061034c8061001c5f395ff3fe608060405234801561000f575f5ffd5b5060043610610135575f3560e01c806351b68a4d116100b65780639abf97aa1161007a5780639abf97aa146101f5578063b0e8fcc7146101ff578063cbb835f614610209578063cd0bae0914610213578063cf3bbe181461021d578063db32da151461022757610135565b806351b68a4d146101c357806371a99d6f146101cd57806377e9d0d6146101d757806381b5207d146101e157806387952d22146101eb57610135565b806324c1d5a7116100fd57806324c1d5a714610191578063292c460d1461019b5780632cb83248146101a55780634484b3b9146101af57806350eb3f43146101b957610135565b806301ffc9a7146101395780630716c2ae14610169578063110460471461017357806319c841ab1461017d57806319e3b53314610187575b5f5ffd5b610153600480360381019061014e91906102b8565b610231565b60405161016091906102fd565b60405180910390f35b610171610237565b005b61017b610239565b005b61018561023b565b005b61018f61023d565b005b61019961023f565b005b6101a3610241565b005b6101ad610243565b005b6101b7610245565b005b6101c1610247565b005b6101cb610249565b005b6101d561024b565b005b6101df61024d565b005b6101e961024f565b005b6101f3610251565b005b6101fd610253565b005b610207610255565b005b610211610257565b005b61021b610259565b005b61022561025b565b005b61022f61025d565b005b5f919050565b565b565b565b565b565b565b565b565b565b565b565b565b565b565b565b565b565b565b565b565b5f5ffd5b5f7fffffffff0000000000000000000000000000000000000000000000000000000082169050919050565b61029781610263565b81146102a1575f5ffd5b50565b5f813590506102b28161028e565b92915050565b5f602082840312156102cd576102cc61025f565b5b5f6102da848285016102a4565b91505092915050565b5f8115159050919050565b6102f7816102e3565b82525050565b5f6020820190506103105f8301846102ee565b9291505056fea2646970667358221220c932f772b6eaff06ef8fb55527ddf243770e790ec2856c49389f0899de25a73964736f6c634300081d0033","linkReferences":{}},"methodIdentifiers":{"supportsInterface(bytes4)":"01ffc9a7","test1Func1()":"19e3b533","test1Func10()":"87952d22","test1Func11()":"50eb3f43","test1Func12()":"81b5207d","test1Func13()":"19c841ab","test1Func14()":"51b68a4d","test1Func15()":"2cb83248","test1Func16()":"77e9d0d6","test1Func17()":"4484b3b9","test1Func18()":"9abf97aa","test1Func19()":"292c460d","test1Func2()":"0716c2ae","test1Func20()":"b0e8fcc7","test1Func3()":"11046047","test1Func4()":"cf3bbe18","test1Func5()":"24c1d5a7","test1Func6()":"cbb835f6","test1Func7()":"71a99d6f","test1Func8()":"db32da15","test1Func9()":"cd0bae09"},"id":4}